{
  "_format": "hh-sol-artifact-1",
  "contractName": "Microinsurance",
  "sourceName": "contracts/Microinsurance.sol",
  "abi": [
    {
      "inputs": [],
      "stateMutability": "nonpayable",
      "type": "constructor"
    },
    {
      "anonymous": false,
      "inputs": [
        {
          "indexed": false,
          "internalType": "uint256",
          "name": "policyId",
          "type": "uint256"
        },
        {
          "indexed": false,
          "internalType": "address",
          "name": "farmer",
          "type": "address"
        }
      ],
      "name": "ClaimFiled",
      "type": "event"
    },
    {
      "anonymous": false,
      "inputs": [
        {
          "indexed": false,
          "internalType": "address",
          "name": "to",
          "type": "address"
        },
        {
          "indexed": false,
          "internalType": "uint256",
          "name": "amount",
          "type": "uint256"
        }
      ],
      "name": "FundsWithdrawn",
      "type": "event"
    },
    {
      "anonymous": false,
      "inputs": [
        {
          "indexed": false,
          "internalType": "uint256",
          "name": "policyId",
          "type": "uint256"
        },
        {
          "indexed": false,
          "internalType": "address",
          "name": "farmer",
          "type": "address"
        },
        {
          "indexed": false,
          "internalType": "uint256",
          "name": "amount",
          "type": "uint256"
        }
      ],
      "name": "PolicyCreated",
      "type": "event"
    },
    {
      "inputs": [
        {
          "internalType": "address",
          "name": "_farmer",
          "type": "address"
        },
        {
          "internalType": "uint256",
          "name": "_coverageAmount",
          "type": "uint256"
        },
        {
          "internalType": "uint256",
          "name": "_premiumAmount",
          "type": "uint256"
        },
        {
          "internalType": "uint256",
          "name": "_duration",
          "type": "uint256"
        }
      ],
      "name": "createPolicy",
      "outputs": [],
      "stateMutability": "payable",
      "type": "function"
    },
    {
      "inputs": [],
      "name": "fileClaim",
      "outputs": [],
      "stateMutability": "nonpayable",
      "type": "function"
    },
    {
      "inputs": [
        {
          "internalType": "address",
          "name": "_farmer",
          "type": "address"
        }
      ],
      "name": "getPolicy",
      "outputs": [
        {
          "components": [
            {
              "internalType": "uint256",
              "name": "id",
              "type": "uint256"
            },
            {
              "internalType": "address",
              "name": "farmer",
              "type": "address"
            },
            {
              "internalType": "uint256",
              "name": "coverageAmount",
              "type": "uint256"
            },
            {
              "internalType": "uint256",
              "name": "premiumAmount",
              "type": "uint256"
            },
            {
              "internalType": "uint256",
              "name": "expiry",
              "type": "uint256"
            },
            {
              "internalType": "bool",
              "name": "claimed",
              "type": "bool"
            }
          ],
          "internalType": "struct Microinsurance.Policy",
          "name": "",
          "type": "tuple"
        }
      ],
      "stateMutability": "view",
      "type": "function"
    },
    {
      "inputs": [],
      "name": "owner",
      "outputs": [
        {
          "internalType": "address",
          "name": "",
          "type": "address"
        }
      ],
      "stateMutability": "view",
      "type": "function"
    },
    {
      "inputs": [
        {
          "internalType": "address",
          "name": "",
          "type": "address"
        }
      ],
      "name": "policies",
      "outputs": [
        {
          "internalType": "uint256",
          "name": "id",
          "type": "uint256"
        },
        {
          "internalType": "address",
          "name": "farmer",
          "type": "address"
        },
        {
          "internalType": "uint256",
          "name": "coverageAmount",
          "type": "uint256"
        },
        {
          "internalType": "uint256",
          "name": "premiumAmount",
          "type": "uint256"
        },
        {
          "internalType": "uint256",
          "name": "expiry",
          "type": "uint256"
        },
        {
          "internalType": "bool",
          "name": "claimed",
          "type": "bool"
        }
      ],
      "stateMutability": "view",
      "type": "function"
    },
    {
      "inputs": [],
      "name": "policyCount",
      "outputs": [
        {
          "internalType": "uint256",
          "name": "",
          "type": "uint256"
        }
      ],
      "stateMutability": "view",
      "type": "function"
    },
    {
      "inputs": [
        {
          "internalType": "address",
          "name": "_to",
          "type": "address"
        },
        {
          "internalType": "uint256",
          "name": "_amount",
          "type": "uint256"
        }
      ],
      "name": "withdrawFunds",
      "outputs": [],
      "stateMutability": "nonpayable",
      "type": "function"
    },
    {
      "stateMutability": "payable",
      "type": "receive"
    }
  ],
  "bytecode": "0x608060405234801561001057600080fd5b50336000806101000a81548173ffffffffffffffffffffffffffffffffffffffff021916908373ffffffffffffffffffffffffffffffffffffffff160217905550611098806100606000396000f3fe6080604052600436106100745760003560e01c80639c3408ff1161004e5780639c3408ff1461012a578063c107532914610141578063de54d4291461016a578063f9083819146101955761007b565b806320e98698146100805780633791dc6a146100c25780638da5cb5b146100ff5761007b565b3661007b57005b600080fd5b34801561008c57600080fd5b506100a760048036038101906100a2919061098c565b6101b1565b6040516100b9969594939291906109fc565b60405180910390f35b3480156100ce57600080fd5b506100e960048036038101906100e4919061098c565b61021a565b6040516100f69190610b05565b60405180910390f35b34801561010b57600080fd5b5061011461030c565b6040516101219190610b20565b60405180910390f35b34801561013657600080fd5b5061013f610330565b005b34801561014d57600080fd5b5061016860048036038101906101639190610b67565b61053a565b005b34801561017657600080fd5b5061017f61068f565b60405161018c9190610ba7565b60405180910390f35b6101af60048036038101906101aa9190610bc2565b610695565b005b60026020528060005260406000206000915090508060000154908060010160009054906101000a900473ffffffffffffffffffffffffffffffffffffffff16908060020154908060030154908060040154908060050160009054906101000a900460ff16905086565b6102226108db565b600260008373ffffffffffffffffffffffffffffffffffffffff1673ffffffffffffffffffffffffffffffffffffffff1681526020019081526020016000206040518060c0016040529081600082015481526020016001820160009054906101000a900473ffffffffffffffffffffffffffffffffffffffff1673ffffffffffffffffffffffffffffffffffffffff1673ffffffffffffffffffffffffffffffffffffffff1681526020016002820154815260200160038201548152602001600482015481526020016005820160009054906101000a900460ff1615151515815250509050919050565b60008054906101000a900473ffffffffffffffffffffffffffffffffffffffff1681565b336000600260008373ffffffffffffffffffffffffffffffffffffffff1673ffffffffffffffffffffffffffffffffffffffff16815260200190815260200160002060000154036103b6576040517f08c379a00000000000000000000000000000000000000000000000000000000081526004016103ad90610c86565b60405180910390fd5b6000600260003373ffffffffffffffffffffffffffffffffffffffff1673ffffffffffffffffffffffffffffffffffffffff16815260200190815260200160002090508060040154421061043f576040517f08c379a000000000000000000000000000000000000000000000000000000000815260040161043690610cf2565b60405180910390fd5b8060050160009054906101000a900460ff1615610491576040517f08c379a000000000000000000000000000000000000000000000000000000000815260040161048890610d5e565b60405180910390fd5b60018160050160006101000a81548160ff0219169083151502179055503373ffffffffffffffffffffffffffffffffffffffff166108fc82600201549081150290604051600060405180830381858888f193505050501580156104f8573d6000803e3d6000fd5b507f1a6aefc7361200a82a77fb744d9c1af223318a57ca88c881d9d4108afe8f3cec81600001543360405161052e929190610d7e565b60405180910390a15050565b60008054906101000a900473ffffffffffffffffffffffffffffffffffffffff1673ffffffffffffffffffffffffffffffffffffffff163373ffffffffffffffffffffffffffffffffffffffff16146105c8576040517f08c379a00000000000000000000000000000000000000000000000000000000081526004016105bf90610df3565b60405180910390fd5b8047101561060b576040517f08c379a000000000000000000000000000000000000000000000000000000000815260040161060290610e5f565b60405180910390fd5b8173ffffffffffffffffffffffffffffffffffffffff166108fc829081150290604051600060405180830381858888f19350505050158015610651573d6000803e3d6000fd5b507feaff4b37086828766ad3268786972c0cd24259d4c87a80f9d3963a3c3d999b0d8282604051610683929190610e7f565b60405180910390a15050565b60015481565b8134146106d7576040517f08c379a00000000000000000000000000000000000000000000000000000000081526004016106ce90610ef4565b60405180910390fd5b6000600260008673ffffffffffffffffffffffffffffffffffffffff1673ffffffffffffffffffffffffffffffffffffffff168152602001908152602001600020600001541461075c576040517f08c379a000000000000000000000000000000000000000000000000000000000815260040161075390610f60565b60405180910390fd5b6001600081548092919061076f90610faf565b91905055506040518060c0016040528060015481526020018573ffffffffffffffffffffffffffffffffffffffff16815260200184815260200183815260200182426107bb9190610ff7565b815260200160001515815250600260008673ffffffffffffffffffffffffffffffffffffffff1673ffffffffffffffffffffffffffffffffffffffff1681526020019081526020016000206000820151816000015560208201518160010160006101000a81548173ffffffffffffffffffffffffffffffffffffffff021916908373ffffffffffffffffffffffffffffffffffffffff16021790555060408201518160020155606082015181600301556080820151816004015560a08201518160050160006101000a81548160ff0219169083151502179055509050507f601882301d3e3fce7fe3a99d4bb17ef5b6699b417bdd29f2bfb82e19fcbcb66060015485856040516108cd9392919061102b565b60405180910390a150505050565b6040518060c0016040528060008152602001600073ffffffffffffffffffffffffffffffffffffffff1681526020016000815260200160008152602001600081526020016000151581525090565b600080fd5b600073ffffffffffffffffffffffffffffffffffffffff82169050919050565b60006109598261092e565b9050919050565b6109698161094e565b811461097457600080fd5b50565b60008135905061098681610960565b92915050565b6000602082840312156109a2576109a1610929565b5b60006109b084828501610977565b91505092915050565b6000819050919050565b6109cc816109b9565b82525050565b6109db8161094e565b82525050565b60008115159050919050565b6109f6816109e1565b82525050565b600060c082019050610a1160008301896109c3565b610a1e60208301886109d2565b610a2b60408301876109c3565b610a3860608301866109c3565b610a4560808301856109c3565b610a5260a08301846109ed565b979650505050505050565b610a66816109b9565b82525050565b610a758161094e565b82525050565b610a84816109e1565b82525050565b60c082016000820151610aa06000850182610a5d565b506020820151610ab36020850182610a6c565b506040820151610ac66040850182610a5d565b506060820151610ad96060850182610a5d565b506080820151610aec6080850182610a5d565b5060a0820151610aff60a0850182610a7b565b50505050565b600060c082019050610b1a6000830184610a8a565b92915050565b6000602082019050610b3560008301846109d2565b92915050565b610b44816109b9565b8114610b4f57600080fd5b50565b600081359050610b6181610b3b565b92915050565b60008060408385031215610b7e57610b7d610929565b5b6000610b8c85828601610977565b9250506020610b9d85828601610b52565b9150509250929050565b6000602082019050610bbc60008301846109c3565b92915050565b60008060008060808587031215610bdc57610bdb610929565b5b6000610bea87828801610977565b9450506020610bfb87828801610b52565b9350506040610c0c87828801610b52565b9250506060610c1d87828801610b52565b91505092959194509250565b600082825260208201905092915050565b7f4e6f2061637469766520706f6c69637900000000000000000000000000000000600082015250565b6000610c70601083610c29565b9150610c7b82610c3a565b602082019050919050565b60006020820190508181036000830152610c9f81610c63565b9050919050565b7f506f6c6963792065787069726564000000000000000000000000000000000000600082015250565b6000610cdc600e83610c29565b9150610ce782610ca6565b602082019050919050565b60006020820190508181036000830152610d0b81610ccf565b9050919050565b7f416c726561647920636c61696d65640000000000000000000000000000000000600082015250565b6000610d48600f83610c29565b9150610d5382610d12565b602082019050919050565b60006020820190508181036000830152610d7781610d3b565b9050919050565b6000604082019050610d9360008301856109c3565b610da060208301846109d2565b9392505050565b7f4e6f7420617574686f72697a6564000000000000000000000000000000000000600082015250565b6000610ddd600e83610c29565b9150610de882610da7565b602082019050919050565b60006020820190508181036000830152610e0c81610dd0565b9050919050565b7f496e73756666696369656e742062616c616e6365000000000000000000000000600082015250565b6000610e49601483610c29565b9150610e5482610e13565b602082019050919050565b60006020820190508181036000830152610e7881610e3c565b9050919050565b6000604082019050610e9460008301856109d2565b610ea160208301846109c3565b9392505050565b7f496e636f7272656374207072656d69756d20616d6f756e740000000000000000600082015250565b6000610ede601883610c29565b9150610ee982610ea8565b602082019050919050565b60006020820190508181036000830152610f0d81610ed1565b9050919050565b7f506f6c69637920616c7265616479206578697374730000000000000000000000600082015250565b6000610f4a601583610c29565b9150610f5582610f14565b602082019050919050565b60006020820190508181036000830152610f7981610f3d565b9050919050565b7f4e487b7100000000000000000000000000000000000000000000000000000000600052601160045260246000fd5b6000610fba826109b9565b91507fffffffffffffffffffffffffffffffffffffffffffffffffffffffffffffffff8203610fec57610feb610f80565b5b600182019050919050565b6000611002826109b9565b915061100d836109b9565b925082820190508082111561102557611024610f80565b5b92915050565b600060608201905061104060008301866109c3565b61104d60208301856109d2565b61105a60408301846109c3565b94935050505056fea2646970667358221220ff3fca49f05278058e831617d25663cd104a3ed78b0a2dce48f4c03318eae87564736f6c63430008130033",
  "linkReferences": {},
  "deployedLinkReferences": {}
}